{"abi":[{"type":"constructor","inputs":[{"name":"adminPanelAddr","type":"address","internalType":"address"},{"name":"secretAddr","type":"address","internalType":"address"}],"stateMutability":"nonpayable"},{"type":"function","name":"checkPassword","inputs":[{"name":"password","type":"bytes32","internalType":"bytes32"}],"outputs":[{"name":"","type":"bool","internalType":"bool"}],"stateMutability":"nonpayable"}],"bytecode":{"object":"0x608060405234801561001057600080fd5b5060405161027838038061027883398101604081905261002f9161007c565b600080546001600160a01b039384166001600160a01b031991821617909155600180549290931691161790556100af565b80516001600160a01b038116811461007757600080fd5b919050565b6000806040838503121561008f57600080fd5b61009883610060565b91506100a660208401610060565b90509250929050565b6101ba806100be6000396000f3fe608060405234801561001057600080fd5b506004361061002b5760003560e01c8063410eee0214610030575b600080fd5b61004361003e366004610115565b610057565b604051901515815260200160405180910390f35b6000805460015460408051602481018690526001600160a01b0392831660448083019190915282518083039091018152606490910182526020810180516001600160e01b0316635449534360e01b17905290518493849316916100b99161012e565b6000604051808303816000865af19150503d80600081146100f6576040519150601f19603f3d011682016040523d82523d6000602084013e6100fb565b606091505b50915091508061010a9061015d565b600114949350505050565b60006020828403121561012757600080fd5b5035919050565b6000825160005b8181101561014f5760208186018101518583015201610135565b506000920191825250919050565b8051602080830151919081101561017e576000198160200360031b1b821691505b5091905056fea2646970667358221220e0f8333be083b807f8951d4868a6231b41254b2f6157a9fb62eff1bcefafd84e64736f6c63430008130033","linkReferences":{}},"methodIdentifiers":{"checkPassword(bytes32)":"410eee02"},"id":11}